{
  "contractName": "NonfungibleTokenPositionDescriptor",
  "abi": [
    {
      "inputs": [
        {
          "internalType": "address",
          "name": "_WETH9",
          "type": "address"
        },
        {
          "internalType": "bytes32",
          "name": "_nativeCurrencyLabelBytes",
          "type": "bytes32"
        }
      ],
      "stateMutability": "nonpayable",
      "type": "constructor"
    },
    {
      "inputs": [],
      "name": "WETH9",
      "outputs": [
        {
          "internalType": "address",
          "name": "",
          "type": "address"
        }
      ],
      "stateMutability": "view",
      "type": "function"
    },
    {
      "inputs": [],
      "name": "nativeCurrencyLabelBytes",
      "outputs": [
        {
          "internalType": "bytes32",
          "name": "",
          "type": "bytes32"
        }
      ],
      "stateMutability": "view",
      "type": "function"
    },
    {
      "inputs": [],
      "name": "nativeCurrencyLabel",
      "outputs": [
        {
          "internalType": "string",
          "name": "",
          "type": "string"
        }
      ],
      "stateMutability": "view",
      "type": "function"
    },
    {
      "inputs": [
        {
          "internalType": "contract INonfungiblePositionManager",
          "name": "positionManager",
          "type": "address"
        },
        {
          "internalType": "uint256",
          "name": "tokenId",
          "type": "uint256"
        }
      ],
      "name": "tokenURI",
      "outputs": [
        {
          "internalType": "string",
          "name": "",
          "type": "string"
        }
      ],
      "stateMutability": "view",
      "type": "function"
    },
    {
      "inputs": [
        {
          "internalType": "address",
          "name": "token0",
          "type": "address"
        },
        {
          "internalType": "address",
          "name": "token1",
          "type": "address"
        },
        {
          "internalType": "uint256",
          "name": "chainId",
          "type": "uint256"
        }
      ],
      "name": "flipRatio",
      "outputs": [
        {
          "internalType": "bool",
          "name": "",
          "type": "bool"
        }
      ],
      "stateMutability": "view",
      "type": "function"
    },
    {
      "inputs": [
        {
          "internalType": "address",
          "name": "token",
          "type": "address"
        },
        {
          "internalType": "uint256",
          "name": "chainId",
          "type": "uint256"
        }
      ],
      "name": "tokenRatioPriority",
      "outputs": [
        {
          "internalType": "int256",
          "name": "",
          "type": "int256"
        }
      ],
      "stateMutability": "view",
      "type": "function"
    }
  ],
  "bytecode": "0x60c060405234801561001057600080fd5b506040516114f03803806114f083398101604081905261002f9161004a565b60609190911b6001600160601b03191660805260a052610082565b6000806040838503121561005c578182fd5b82516001600160a01b0381168114610072578283fd5b6020939093015192949293505050565b60805160601c60a0516114306100c06000398061027f52806102b3528061034f52508060f7528061013c52806105f2528061064652506114306000f3fe608060405234801561001057600080fd5b50600436106100625760003560e01c80634aa4a4fc146100675780637e5af771146100855780639d7b0ea8146100a5578063a18246e2146100c5578063b7af3cdc146100cd578063e9dc6375146100e2575b600080fd5b61006f6100f5565b60405161007c9190611259565b60405180910390f35b610098610093366004610f5f565b610119565b60405161007c919061126d565b6100b86100b3366004610f9f565b610138565b60405161007c9190611278565b6100b861027d565b6100d56102a1565b60405161007c9190611281565b6100d56100f0366004610f9f565b6103af565b7f000000000000000000000000000000000000000000000000000000000000000081565b60006101258383610138565b61012f8584610138565b13949350505050565b60007f00000000000000000000000000000000000000000000000000000000000000006001600160a01b0316836001600160a01b0316141561017d5750606319610277565b8160011415610273576001600160a01b03831673a0b86991c6218b36c1d19d4a2e9eb0ce3606eb4814156101b4575061012c610277565b6001600160a01b03831673dac17f958d2ee523a2206206994597c13d831ec714156101e1575060c8610277565b6001600160a01b038316736b175474e89094c44da98b954eedeac495271d0f141561020e57506064610277565b6001600160a01b038316738daebade922df735c38c80c7ebd708af50815faa141561023c575060c719610277565b6001600160a01b038316732260fac5e5542a773aa44fbcfedf7c193bc2c599141561026b575061012b19610277565b506000610277565b5060005b92915050565b7f000000000000000000000000000000000000000000000000000000000000000081565b606060005b6020811080156102ee57507f000000000000000000000000000000000000000000000000000000000000000081602081106102dd57fe5b1a60f81b6001600160f81b03191615155b156102fb576001016102a6565b60008167ffffffffffffffff8111801561031457600080fd5b506040519080825280601f01601f19166020018201604052801561033f576020820181803683370190505b50905060005b828110156103a8577f0000000000000000000000000000000000000000000000000000000000000000816020811061037957fe5b1a60f81b82828151811061038957fe5b60200101906001600160f81b031916908160001a905350600101610345565b5091505090565b60606000806000806000876001600160a01b03166399fbab88886040518263ffffffff1660e01b81526004016103e59190611278565b6101806040518083038186803b1580156103fe57600080fd5b505afa158015610412573d6000803e3d6000fd5b505050506040513d601f19601f820116820180604052508101906104369190611124565b505050505096509650965096509650505060006104f4896001600160a01b031663c45a01556040518163ffffffff1660e01b815260040160206040518083038186803b15801561048557600080fd5b505afa158015610499573d6000803e3d6000fd5b505050506040513d601f19601f820116820180604052508101906104bd9190610f3c565b6040518060600160405280896001600160a01b03168152602001886001600160a01b031681526020018762ffffff168152506108bf565b9050600061050587876100936109a3565b9050600081156105155787610517565b865b9050600082156105275787610529565b885b90506000846001600160a01b0316633850c7bd6040518163ffffffff1660e01b815260040160e06040518083038186803b15801561056657600080fd5b505afa15801561057a573d6000803e3d6000fd5b505050506040513d601f19601f8201168201806040525081019061059e919061107b565b505050505091505073__NFTDescriptor_________________________63c49917d7604051806101c001604052808f8152602001866001600160a01b03168152602001856001600160a01b031681526020017f00000000000000000000000000000000000000000000000000000000000000006001600160a01b0316876001600160a01b03161461063757610632876109a7565b61063f565b61063f6102a1565b81526020017f00000000000000000000000000000000000000000000000000000000000000006001600160a01b0316866001600160a01b03161461068b57610686866109a7565b610693565b6106936102a1565b8152602001866001600160a01b031663313ce5676040518163ffffffff1660e01b815260040160206040518083038186803b1580156106d157600080fd5b505afa1580156106e5573d6000803e3d6000fd5b505050506040513d601f19601f82011682018060405250810190610709919061110a565b60ff168152602001856001600160a01b031663313ce5676040518163ffffffff1660e01b815260040160206040518083038186803b15801561074a57600080fd5b505afa15801561075e573d6000803e3d6000fd5b505050506040513d601f19601f82011682018060405250810190610782919061110a565b60ff16815260200187151581526020018a60020b81526020018960020b81526020018460020b8152602001886001600160a01b031663d0c93a7c6040518163ffffffff1660e01b815260040160206040518083038186803b1580156107e657600080fd5b505afa1580156107fa573d6000803e3d6000fd5b505050506040513d601f19601f8201168201806040525081019061081e9190610fca565b60020b81526020018b62ffffff168152602001886001600160a01b03168152506040518263ffffffff1660e01b815260040161085a9190611294565b60006040518083038186803b15801561087257600080fd5b505af4158015610886573d6000803e3d6000fd5b505050506040513d6000823e601f3d908101601f191682016040526108ae9190810190610fe4565b9d9c50505050505050505050505050565b600081602001516001600160a01b031682600001516001600160a01b0316106108e757600080fd5b50805160208083015160409384015184516001600160a01b0394851681850152939091168385015262ffffff166060808401919091528351808403820181526080840185528051908301206001600160f81b031960a085015294901b6bffffffffffffffffffffffff191660a183015260b58201939093527fe34f199b19b2b4f47f68442619d555527d244f78a3297ea89325f843f87b8b5460d5808301919091528251808303909101815260f5909101909152805191012090565b4690565b606060006109bc836395d89b4160e01b6109e1565b90508051600014156109d9576109d183610c09565b9150506109dc565b90505b919050565b60408051600481526024810182526020810180516001600160e01b03166001600160e01b031985161781529151815160609360009384936001600160a01b03891693919290918291908083835b60208310610a4d5780518252601f199092019160209182019101610a2e565b6001836020036101000a038019825116818451168082178552505050505050905001915050600060405180830381855afa9150503d8060008114610aad576040519150601f19603f3d011682016040523d82523d6000602084013e610ab2565b606091505b5091509150811580610ac357508051155b15610ae1576040518060200160405280600081525092505050610277565b805160201415610b19576000818060200190516020811015610b0257600080fd5b50519050610b0f81610c16565b9350505050610277565b604081511115610bf157808060200190516020811015610b3857600080fd5b8101908080516040519392919084640100000000821115610b5857600080fd5b908301906020820185811115610b6d57600080fd5b8251640100000000811182820188101715610b8757600080fd5b82525081516020918201929091019080838360005b83811015610bb4578181015183820152602001610b9c565b50505050905090810190601f168015610be15780820380516001836020036101000a031916815260200191505b5060405250505092505050610277565b50506040805160208101909152600081529392505050565b60606109d9826006610d3e565b604080516020808252818301909252606091600091906020820181803683370190505090506000805b6020811015610ca0576000858260208110610c5657fe5b1a60f81b90506001600160f81b0319811615610c975780848481518110610c7957fe5b60200101906001600160f81b031916908160001a9053506001909201915b50600101610c3f565b5060008167ffffffffffffffff81118015610cba57600080fd5b506040519080825280601f01601f191660200182016040528015610ce5576020820181803683370190505b50905060005b82811015610d3557838181518110610cff57fe5b602001015160f81c60f81b828281518110610d1657fe5b60200101906001600160f81b031916908160001a905350600101610ceb565b50949350505050565b606060028206158015610d515750600082115b8015610d5e575060288211155b610daf576040805162461bcd60e51b815260206004820152601e60248201527f41646472657373537472696e675574696c3a20494e56414c49445f4c454e0000604482015290519081900360640190fd5b60008267ffffffffffffffff81118015610dc857600080fd5b506040519080825280601f01601f191660200182016040528015610df3576020820181803683370190505b5090506001600160a01b03841660005b60028504811015610e9757600860138290030282901c600f600482901c1660f082168203610e3082610ea1565b868560020281518110610e3f57fe5b60200101906001600160f81b031916908160001a905350610e5f81610ea1565b868560020260010181518110610e7157fe5b60200101906001600160f81b031916908160001a9053505060019092019150610e039050565b5090949350505050565b6000600a8260ff161015610ebc57506030810160f81b6109dc565b506037810160f81b6109dc565b80516109dc816113e2565b8051600281900b81146109dc57600080fd5b80516fffffffffffffffffffffffffffffffff811681146109dc57600080fd5b805161ffff811681146109dc57600080fd5b805162ffffff811681146109dc57600080fd5b805160ff811681146109dc57600080fd5b600060208284031215610f4d578081fd5b8151610f58816113e2565b9392505050565b600080600060608486031215610f73578182fd5b8335610f7e816113e2565b92506020840135610f8e816113e2565b929592945050506040919091013590565b60008060408385031215610fb1578182fd5b8235610fbc816113e2565b946020939093013593505050565b600060208284031215610fdb578081fd5b610f5882610ed4565b600060208284031215610ff5578081fd5b815167ffffffffffffffff8082111561100c578283fd5b818401915084601f83011261101f578283fd5b81518181111561102b57fe5b604051601f8201601f19168101602001838111828210171561104957fe5b604052818152838201602001871015611060578485fd5b6110718260208301602087016113b2565b9695505050505050565b600080600080600080600060e0888a031215611095578283fd5b87516110a0816113e2565b96506110ae60208901610ed4565b95506110bc60408901610f06565b94506110ca60608901610f06565b93506110d860808901610f06565b92506110e660a08901610f2b565b915060c088015180151581146110fa578182fd5b8091505092959891949750929550565b60006020828403121561111b578081fd5b610f5882610f2b565b6000806000806000806000806000806000806101808d8f031215611146578485fd5b8c516bffffffffffffffffffffffff81168114611161578586fd5b9b5061116f60208e01610ec9565b9a5061117d60408e01610ec9565b995061118b60608e01610ec9565b985061119960808e01610f18565b97506111a760a08e01610ed4565b96506111b560c08e01610ed4565b95506111c360e08e01610ee6565b94506101008d015193506101208d015192506111e26101408e01610ee6565b91506111f16101608e01610ee6565b90509295989b509295989b509295989b565b6001600160a01b03169052565b15159052565b60020b9052565b600081518084526112358160208601602086016113b2565b601f01601f19169290920160200192915050565b62ffffff169052565b60ff169052565b6001600160a01b0391909116815260200190565b901515815260200190565b90815260200190565b600060208252610f58602083018461121d565b6000602082528251602083015260208301516112b36040840182611203565b5060408301516112c66060840182611203565b5060608301516101c08060808501526112e36101e085018361121d565b91506080850151601f198584030160a0860152611300838261121d565b92505060a085015161131560c0860182611252565b5060c085015161132860e0860182611252565b5060e085015161010061133d81870183611210565b860151905061012061135186820183611216565b860151905061014061136586820183611216565b860151905061016061137986820183611216565b860151905061018061138d86820183611216565b86015190506101a06113a186820183611249565b8601519050610e9785830182611203565b60005b838110156113cd5781810151838201526020016113b5565b838111156113dc576000848401525b50505050565b6001600160a01b03811681146113f757600080fd5b5056fea26469706673582212202d1081ac071e6e5aa03472384c3cd4b0a0630c0b9e2989604e9250d6d7a70d0864736f6c63430007060033",
  "immutableReferences": {
    "6125": [
      {
        "length": 32,
        "start": 247
      },
      {
        "length": 32,
        "start": 316
      },
      {
        "length": 32,
        "start": 1522
      },
      {
        "length": 32,
        "start": 1606
      }
    ],
    "6128": [
      {
        "length": 32,
        "start": 639
      },
      {
        "length": 32,
        "start": 691
      },
      {
        "length": 32,
        "start": 847
      }
    ]
  },
  "source": "// SPDX-License-Identifier: GPL-2.0-or-later\r\npragma solidity >=0.7.6;\r\npragma abicoder v2;\r\n\r\nimport '@uniswap/v3-core/contracts/interfaces/IUniswapV3Pool.sol';\r\nimport '@uniswap/lib/contracts/libraries/SafeERC20Namer.sol';\r\n\r\nimport '@uniswap/v3-periphery/contracts/libraries/ChainId.sol';\r\nimport '@uniswap/v3-periphery/contracts/interfaces/INonfungiblePositionManager.sol';\r\nimport '@uniswap/v3-periphery/contracts/interfaces/INonfungibleTokenPositionDescriptor.sol';\r\nimport '@uniswap/v3-periphery/contracts/interfaces/IERC20Metadata.sol';\r\nimport '@uniswap/v3-periphery/contracts/libraries/PoolAddress.sol';\r\nimport '@uniswap/v3-periphery/contracts/libraries/NFTDescriptor.sol';\r\nimport '@uniswap/v3-periphery/contracts/libraries/TokenRatioSortOrder.sol';\r\n\r\n/// @title Describes NFT token positions\r\n/// @notice Produces a string containing the data URI for a JSON metadata string\r\ncontract NonfungibleTokenPositionDescriptor is INonfungibleTokenPositionDescriptor {\r\n    address private constant DAI = 0x6B175474E89094C44Da98b954EedeAC495271d0F;\r\n    address private constant USDC = 0xA0b86991c6218b36c1d19D4a2e9Eb0cE3606eB48;\r\n    address private constant USDT = 0xdAC17F958D2ee523a2206206994597C13D831ec7;\r\n    address private constant TBTC = 0x8dAEBADE922dF735c38C80C7eBD708Af50815fAa;\r\n    address private constant WBTC = 0x2260FAC5E5542a773Aa44fBCfeDf7C193bc2C599;\r\n\r\n    address public immutable WETH9;\r\n    /// @dev A null-terminated string\r\n    bytes32 public immutable nativeCurrencyLabelBytes;\r\n\r\n    constructor(address _WETH9, bytes32 _nativeCurrencyLabelBytes) {\r\n        WETH9 = _WETH9;\r\n        nativeCurrencyLabelBytes = _nativeCurrencyLabelBytes;\r\n    }\r\n\r\n    /// @notice Returns the native currency label as a string\r\n    function nativeCurrencyLabel() public view returns (string memory) {\r\n        uint256 len = 0;\r\n        while (len < 32 && nativeCurrencyLabelBytes[len] != 0) {\r\n            len++;\r\n        }\r\n        bytes memory b = new bytes(len);\r\n        for (uint256 i = 0; i < len; i++) {\r\n            b[i] = nativeCurrencyLabelBytes[i];\r\n        }\r\n        return string(b);\r\n    }\r\n\r\n    /// @inheritdoc INonfungibleTokenPositionDescriptor\r\n    function tokenURI(INonfungiblePositionManager positionManager, uint256 tokenId)\r\n        external\r\n        view\r\n        override\r\n        returns (string memory)\r\n    {\r\n        (, , address token0, address token1, uint24 fee, int24 tickLower, int24 tickUpper, , , , , ) =\r\n            positionManager.positions(tokenId);\r\n\r\n        IUniswapV3Pool pool =\r\n            IUniswapV3Pool(\r\n                PoolAddress.computeAddress(\r\n                    positionManager.factory(),\r\n                    PoolAddress.PoolKey({token0: token0, token1: token1, fee: fee})\r\n                )\r\n            );\r\n\r\n        bool _flipRatio = flipRatio(token0, token1, ChainId.get());\r\n        address quoteTokenAddress = !_flipRatio ? token1 : token0;\r\n        address baseTokenAddress = !_flipRatio ? token0 : token1;\r\n        (, int24 tick, , , , , ) = pool.slot0();\r\n\r\n        return\r\n            NFTDescriptor.constructTokenURI(\r\n                NFTDescriptor.ConstructTokenURIParams({\r\n                    tokenId: tokenId,\r\n                    quoteTokenAddress: quoteTokenAddress,\r\n                    baseTokenAddress: baseTokenAddress,\r\n                    quoteTokenSymbol: quoteTokenAddress == WETH9\r\n                        ? nativeCurrencyLabel()\r\n                        : SafeERC20Namer.tokenSymbol(quoteTokenAddress),\r\n                    baseTokenSymbol: baseTokenAddress == WETH9\r\n                        ? nativeCurrencyLabel()\r\n                        : SafeERC20Namer.tokenSymbol(baseTokenAddress),\r\n                    quoteTokenDecimals: IERC20Metadata(quoteTokenAddress).decimals(),\r\n                    baseTokenDecimals: IERC20Metadata(baseTokenAddress).decimals(),\r\n                    flipRatio: _flipRatio,\r\n                    tickLower: tickLower,\r\n                    tickUpper: tickUpper,\r\n                    tickCurrent: tick,\r\n                    tickSpacing: pool.tickSpacing(),\r\n                    fee: fee,\r\n                    poolAddress: address(pool)\r\n                })\r\n            );\r\n    }\r\n\r\n    function flipRatio(\r\n        address token0,\r\n        address token1,\r\n        uint256 chainId\r\n    ) public view returns (bool) {\r\n        return tokenRatioPriority(token0, chainId) > tokenRatioPriority(token1, chainId);\r\n    }\r\n\r\n    function tokenRatioPriority(address token, uint256 chainId) public view returns (int256) {\r\n        if (token == WETH9) {\r\n            return TokenRatioSortOrder.DENOMINATOR;\r\n        }\r\n        if (chainId == 1) {\r\n            if (token == USDC) {\r\n                return TokenRatioSortOrder.NUMERATOR_MOST;\r\n            } else if (token == USDT) {\r\n                return TokenRatioSortOrder.NUMERATOR_MORE;\r\n            } else if (token == DAI) {\r\n                return TokenRatioSortOrder.NUMERATOR;\r\n            } else if (token == TBTC) {\r\n                return TokenRatioSortOrder.DENOMINATOR_MORE;\r\n            } else if (token == WBTC) {\r\n                return TokenRatioSortOrder.DENOMINATOR_MOST;\r\n            } else {\r\n                return 0;\r\n            }\r\n        }\r\n        return 0;\r\n    }\r\n}",
  "sourcePath": "C:\\Users\\Jose\\Documents\\Projects\\uniswap_contracts\\contracts\\NonfungibleTokenPositionDescriptor.sol",
  "compiler": {
    "name": "solc",
    "version": "0.7.6+commit.7338295f.Emscripten.clang"
  },
  "schemaVersion": "3.4.6",
  "updatedAt": "2022-04-04T23:33:48.068Z",
  "devdoc": {
    "kind": "dev",
    "methods": {
      "tokenURI(address,uint256)": {
        "details": "Note this URI may be a data: URI with the JSON contents directly inlined",
        "params": {
          "positionManager": "The position manager for which to describe the token",
          "tokenId": "The ID of the token for which to produce a description, which may not be valid"
        },
        "returns": {
          "_0": "The URI of the ERC721-compliant metadata"
        }
      }
    },
    "stateVariables": {
      "nativeCurrencyLabelBytes": {
        "details": "A null-terminated string"
      }
    },
    "title": "Describes NFT token positions",
    "version": 1
  },
  "userdoc": {
    "kind": "user",
    "methods": {
      "nativeCurrencyLabel()": {
        "notice": "Returns the native currency label as a string"
      },
      "tokenURI(address,uint256)": {
        "notice": "Produces the URI describing a particular token ID for a position manager"
      }
    },
    "notice": "Produces a string containing the data URI for a JSON metadata string",
    "version": 1
  }
}